:100FEE0043680000000000656E0000000000000075
:020FFE000000F1
:0813D600025B00000259000057
:1015820012129AC3EF94FFEE6480947F50037F009F
:1015920022BEFF0BBFFF08E4F55BF55C7F01228EE4
:0515A2005B8F5C7F027D
:0115A7002221
:05002600AE5BAF5C229F
:05168E00AE59AF5A2225
:041000008E1C8F1D96
:10100400781E7C007D007BFF7A0F79EE7E007F09DD
:1010140012051CE4F527F528F529E51D451C70206B
:101024007E3AF5828E83740293F520740393F5213E
:1010340012141F8E288F29EEF522E529F52380113D
:10104400E51CF520851D21F559851D5AE4F522F589
:10105400237F02741E2FF8E62527F5270FBF06F31A
:10106400741E2FF8A62743EF0253D9BFA2AFE4336F
:10107400FEC2AF903A00758F0375B7A575B7F1E45A
:10108400F0F58FC2AF903A00758F01FF75B7A57563
:10109400B7F1741E2FF8E6F0A30FBF09EFE4F58F44
:1010A400EE24FF92AFE51D451C701012129AEF65F5
:0D10B400297003EE652860037F01227F0094
:0110C100220C
:10129A00782A7C007D007BFF7A0F79F77E007F0930
:1012AA0012051CE4F9FFFD7C3AFEED2EF582E43CC2
:1012BA00F583E493FB742A2EF8A603742A2EF8E623
:1012CA00B4FF010F0EBE09E2BF09057EFF7FFF22B0
:1012DA007E02742A2EF8E629F90EBE06F5E52AB42E
:1012EA004314E52BB4680FE531B4650AE532B46EF0
:1012FA0005E9653060057EFF7FFE22E52CF559E59C
:09130A002DF55AE52EFEE52FFF3A
:0113130022B7
:1015A80043EF0253D9BFA2AFE433FFC2AF903A0072
:1015B800758F0375B7A575B7F1E4F0F58FEF24FFC4
:0415C80092AF7F015E
:0115CC0022FC
:100E8B00E4F50EF50F1216631216077F007EC27D76
:100E9B00017C00120BF7D2AF120003121582EF6424
:100EAB0001702A1208008F0EE50E601CE4F50FAFDF
:100EBB000E12002E121636121636050FE50FC394BE
:100ECB000540EC121617804412149B803F121582BA
:100EDB00EF700D7F0D12002E12163612163680F3A0
:100EEB001210C28F0EE50E601AE4F50FAF0E120052
:100EFB002E121636121636050FE50FC3940540EC6D
:100F0B00121617120026E4FCFD12156D121627128D
:100F1B00165AEC4D4E4F70F712167B121697121491
:100F2B005D120A96BF0103750E0112165AEC4D4E57
:100F3B004F70EEE50EB401E9121179E4F50E1216BD
:030F4B008880DEBD
:08166C00000000000000000076
:1013DE00044B00000000045100000000024F0064A6
:0913EE000455000000C8014A008A
:10160700E4754E01F54DF54CF54B1207E602164F02
:1007E600538E9F53C8FE75CB0375CA2A85CBCD851C
:0A07F600CACC75C804D2ADC2CA22F5
:0B164F00D281D2B4D2B3D282C2812279
:1010C200E4F51012163612168E7C007D03120542CC
:1010D200E4FD12156D20950C12165AEC4D4E4F7010
:1010E200F47F012230950C12165AEC4D4E4F70F4DB
:1010F2007F0222E4F54FF55012168EEF24E0FFEE48
:1011020034FFFEE48F4E8E4DF54CF54B20950C12BC
:10111200165AEC4D4E4F70F47F012230954F121645
:101122005AEC4D4E4F700A05107F01FEFDFC121560
:101132006D12168EAC06AD07E41203927BCD7ACC0B
:10114200794C783E12016EC004C005C006C007ACDF
:1011520010E4120397A804A905AA06AB07D007D08A
:1011620006D005D00412031440B17F032212117974
:06117200E4F54FF550FF0B
:011178002254
:10080000E4F510F51178127C00FD7BFF7A16796C07
:10081000FE7F0812051C751A0C751B80AE1AAF1BE3
:100820007C007D06120542E4FD12156D20950C1228
:10083000165AEC4D4E4F70F47F012230950C121673
:100840005AEC4D4E4F70F47F0222E4F54FF550AE56
:100850001AAF1BFC7D05120542E48F4E8E4DF54C00
:10086000F54BF51120950C12165AEC4D4E4F70F4C5
:100870007F012230950C12165AEC4D4E4F70F47FCA
:100880000222E51125E02412F8A64F08A650E4F54F
:100890004FF5500511E511C3940240C8C3E5139507
:1008A00015FFE5129514FE121643D3EF9420EE6463
:1008B00080948040037F0422E47FC8FEFDFCAB4EA1
:1008C000AA4DA94CA84BD31206D44020E5132515F8
:1008D000FFE5123514C313FEEF1324E0FFEE34FFDF
:1008E000FEE48F4E8E4DF54CF54B800C12165AECF3
:1008F0004D4E4F70F712155520950C12165AEC4DAF
:100900004E4F70F47F0122E4F51030955B12165AB9
:10091000EC4D4E4F700A05107F01FEFDFC12156D67
:10092000E5132515FDE5123514FCE41203927BCD89
:100930007ACC794C783E12016EE4FBFAF9784012D9
:100940000277C004C005C006C007AC10E4120397CC
:10095000A804A905AA06AB07D007D006D005D00485
:1009600012031440A57F0322121179751102E4F5D8
:100970004FF55012155520950C12165AEC4D4E4F4E
:1009800070F47F0122E4F51030955B12165AEC4D9D
:100990004E4F700A05107F01FEFDFC12156DE51328
:1009A0002515FDE5123514FCE41203927BCD7ACCBB
:1009B000794C783E12016EE4FBFAF9784012027726
:1009C000C004C005C006C007AC10E4120397A80419
:1009D000A905AA06AB07D007D006D005D00412039C
:1009E0001440A57F0322121179E51125E02412F8A5
:1009F000A64F08A6500511E511C394045002216EBC
:100A0000C3E5179519FFE5169518FE121643D3EFA7
:100A10009420EE6480948040037F0422E51725191A
:100A2000FFE5163518C313FCEF13FDE5132515FF7D
:100A3000E5123514C313FEEF13C39DFFEE9CFE12A7
:100A40001643D3EF9420EE6480948040037F042209
:100A5000E5132515FFE5123514FEE5172FFFE51602
:100A60003EFEE5192FFFE5183EFEEF7802CEC313D8
:100A7000CE13D8F9FDAC06E4120392E4FBFAF97840
:100A80003F12007D1203CB8E1A8F1BE4F54FF550F9
:050A90001210007F00C0
:010A9500223E
:10070B00E4F515F51612168EC3EF9550FFEE954FC7
:10071B0012156920950C12165AEC4D4E4F70F47F42
:10072B00012230955A12165AEC4D4E4F7013051686
:10073B00E516700205157F017E007D007C00121509
:10074B006D12168EAC06AD07E41203927BCD7ACCFC
:10075B00794C783E12016EC004C005C006C007ACD0
:10076B0015AD16E4120392A804A905AA06AB07D08F
:10077B0007D006D005D00412031440A67F0322E451
:10078B00F54FF5507F08FEFDFCAB4EAA4DA94CA8CA
:10079B004BD31206D450051211798036E47FC8FE74
:1007AB00FDFCAB4EAA4DA94CA84BD31206D4400A64
:1007BB00E4754EC8F54DF54CF54B12165AEC4D4EF3
:1007CB004F70F712070B054AE54AD3940240037F9B
:0A07DB000522E4F54A1211797F00AF
:0107E50022F1
:10131400EF24FF9282C281AF24AE23AD22AC21EC34
:101324004D4E4F605EE47F907E01FDFCAB24AA230A
:10133400A922A821C31206D4E4501A7B02FAF9F8B0
:10134400AF24AE23AD22AC211206348F588E578DB4
:10135400568C5580097558C8F557F556F5558524AA
:101364004E85234D85224C85214BE4F554F553F5E8
:1013740052F55175CB0475CAB375CD0475CCB3D28F
:04138400CAD2AF22F8
:10155500E5132515FFE5123514C313FEEF1324F02B
:08156500FFEE34FFFEE4FCFD83
:10156D008F1F8E1E8D1D8C1C8F248E238D228C2102
:05157D007F01021314C0
:1015F2008F188E178D168C158F248E238D228C2199
:05160200E4FF021314D7
:10117900E47F08FEFDFCAB4EAA4DA94CA84BD31247
:1011890006D450028071AF58AE57AD56AC55AB4E30
:10119900AA4DA94CA84BC31206D44022AF58AE574A
:1011A900AD56AC55AB54AA53A952A8511206D44016
:1011B9000D85584E85574D85564C85554B22AF5850
:1011C900AE57AD56AC55AB4EAA4DA94CA84BC31260
:1011D90006D44030AF58AE57AD56AC55AB54AA53B0
:1011E900A952A851C31206D4500D85544E85534DAA
:1011F90085524C85514B22C281C2CAE4F54EF54D48
:05120900F54CF54B223D
:09165A00AF4EAE4DAD4CAC4B227D
:10141F00C3E54F64809480500F12168EEF2550F560
:10142F0050EE354FF54F80E812168ED3E5509FE5FD
:10143F004F9E401512168EAC4FAD50CFCDCFCECCA8
:0E144F00CE120554AE04AF0522AE4FAF5022B0
:06168200E4F54FF55022D3
:03002B00020D546F
:100D5400C0E0C0F0C083C082C0D075D000C000C065
:100D640001C002C003C004C005C006C007C280E5BC
:100D74004E24FFF54EE54D34FFF54DE54C34FFF5BB
:100D84004CE54B34FFF54BE5542401F554E435535D
:100D9400F553E43552F552E43551F551AF4EAE4DAD
:100DA400AD4CAC4BEC4D4E4F7002C2CA30820A05BA
:100DB40050E550700C054F8008E550155070021531
:100DC4004FE47F08FEFDFCAB4EAA4DA94CA84BD3C3
:100DD4001206D44014E47F08FEFDFCAB54AA53A9C8
:100DE40052A851D31206D4500C75CB0475CAB375EE
:100DF400CD0475CCB3AF58AE57AD56AC55AB4EAA77
:100E04004DA94CA84BC31206D4500BE47FB87E0303
:100E1400FDFCA84B801FAF58AE57AD56AC55AB5434
:100E2400AA53A952A851C31206D4503AE47FB87EFB
:100E340003FDFCA8511205A9AB58AA57A956A855F9
:100E4400120634EF2420FBE43EFAE43DF9E43CF8D6
:100E54007FB07E697D1F7C001206341206C68ECBDD
:100E64008FCA8ECD8FCCD280C2CEC2CFD007D0064F
:100E7400D005D004D003D002D001D000D0D0D0828D
:070E8400D083D0F0D0E03272
:1016170012163612163612163612163643EF1022E7
:091663001216931215CD02167443
:0716740043B20375EF0422ED
:1015CD0075A4D775A60375A71E75D4C775D53C75BB
:1015DD00D60343F23C43903C53803F75A0FC75E12C
:0515ED000175E240223F
:0416930053D9BF2246
:0C1636007F307E807D54DDFEDEFCDFFA9C
:011642002285
:0E16270000007F017EEF7D4EDDFEDEFCDFFA6F
:011635002292
:1013F7000642000000000000063400000000000064
:10140700014100013300063B000000000000013AE3
:07141700000149000148E05B
:100BF7008F138E128D118C10759810AB13AA12A932
:100C070011A8107F207ED77D757C01120634E47B06
:100C170002FAF9F8120634E4FB7A01F9F8120634FD
:100C2700E47B01FAF9F8D31206D44029AB13AA12D0
:100C3700A911A8107F207ED77D757C01120634E4A8
:100C47007B02FAF9F81206341206C68F8D538EF41A
:100C5700438E08A13FAB13AA12A911A8107F207ECB
:100C6700D77D757C01120634E47B02FAF9F8120687
:100C770034E4FB7A01F9F8120634E47B04FAF9F854
:100C8700D31206D44032AB13AA12A911A8107F20A1
:100C97007ED77D757C01120634E47B02FAF9F812DF
:100CA7000634E47B04FAF9F81206341206C68F8D6F
:100CB700538EF4438E01A13FAB13AA12A911A810BA
:100CC7007F207ED77D757C01120634E47B02FAF91A
:100CD700F8120634E4FB7A01F9F8120634E47B0CC7
:100CE700FAF9F8D31206D4AB13AA12A911A8107FE8
:100CF700207ED77D757C01401F120634E47B02FA03
:100D0700F9F8120634E47B0CFAF9F81206341206E5
:100D1700C68F8D538EF48020120634E47B02FAF9D5
:100D2700F8120634E47B30FAF9F81206341206C6D4
:100D37008F8D538EF4438E02858D8B53890F438994
:0D0D470020D28E43B810C2B1C2B2D2AC228D
:100003007548E0538E9F5391FE7593047592B385A3
:0F001300939585929475910443E6804390202243
:07167B005391FB7548E022CA
:04169700754901226E
:10145D00E4F51575160120B2FD754265853C431204
:10146D00141FEEF54412141F8F45E516C394045056
:10147D000E74422516F8E62515F515051680EBE5D3
:0D148D0015F54675476EE4F541D2B2D299CF
:01149A00222F
:10002E00E4F51575160120B2FD754265EF540F44C7
:10003E00E0F543F54812141FEEF54412141F8F45D8
:10004E00E516C39404500E74422516F8E62515F5F0
:10005E0015051680EBE515F54675476EE4F541D2AC
:03006E00B2D29972
:01007100226C
:10149B00E4F51575160120B2FD75426575433812DA
:1014AB00168EEEF54412168E8F45E516C394045036
:1014BB000E74422516F8E62515F515051680EBE595
:0D14CB0015F54675476EE4F541D2B2D29991
:0114D80022F1
:1014D900E4F51575160120B2FD754265754339129B
:1014E9000026EEF5441200268F45E516C3940450F4
:1014F9000E74422516F8E62515F515051680EBE557
:0D15090015F54675476EE4F541D2B2D29952
:0115160022B2
:06168800753C0102145D37
:100A9600E4FBF510F514F513F512F511E53A7003BC
:100AA6007FFF22E4F53AF51074342510F8E6FF745A
:100AB6003B2510F8A60774342510F8E4F60510E572
:100AC60010B406E4751001743B2510F8E62BFB05FF
:100AD60010E510B404F1E53BB4430AE540B46805FB
:100AE600E53F6B60087F0612002E7F0022E53DFE83
:100AF600E53EFFE48F148E13F512F511E53C120660
:100B0600E50B8C140BA9150B41260B32270B353838
:100B16000B3B390B49800B60810B75820B7F830B76
:100B26002CFF00000BEC1215A843EF1043EF101238
:100B3600149B7F02221214D97F022212145D121115
:100B46007961F412145D12000312070B8F10E51081
:100B5600600312002E12167B61F412145DE4FFFE90
:100B6600121000EF60047F0E807E121582807FAF28
:100B760014AE13AD12AC118068AF14AE13AD12AC47
:100B8600111215F2806812000312070B8F10E51080
:100B9600600312002E12167B121627120026E4FCA2
:100BA600FD803E120026E4FCFDE5142FF514E51346
:100BB6003EF513ED3512F512EC3511F51112000361
:100BC60012070B8F10E510600312002E12167B120F
:100BD600162712141FC3E5149FFFE5139EFEE4FCBF
:100BE600FD12156D80087F0712002E7F02227F01FD
:010BF60022DC
:100F4E00E4FBF50BF50AF509F508E53A7002E1ED5B
:100F5E00E4F53AFA74342AF8E6FF743B2AF8A60749
:100F6E0074342AF8E4F60ABA06EA7A01743B2AF8CF
:100F7E00E62BFB0ABA04F5E53BB4430AE540B46838
:100F8E0005E53F6B60047F068052E53C24EC602B48
:100F9E0014602824EF602414601D24EE601124B91F
:100FAE0024FC50172485600A24C7702E02149B025D
:100FBE0014D91215A8800043EF1022E5497005756B
:100FCE003C028003753C03E54864E0600AE5486432
:0F0FDE00E66004AF48800502145D7F0712002E05
:010FED0022E1
:030023000213883D
:10138800C0E0C0D075D000C000C007309819AF3396
:10139800053374342FF8A699E533C39406400675CF
:1013A8003300753A01C29830991BE541C394065041
:1013B8000DAF41054174422FF8E6F5998005754156
:0E13C80000C2B2C299D007D000D0D0D0E0321F
:030073000215175C
:10151700C0E0C0F0C083C082C0D075D000C000C09A
:1015270001C002C003C004C005C006C007120F4EA9
:1015370053913FD007D006D005D004D003D002D0B6
:0E15470001D000D0D0D082D083D0F0D0E032DE
:10007600020437E86480F8E933E83360110460F07D
:10008600ED33EC337009E8FCE9FDEAFEEBFF2204F0
:1000960060DED3EB9FEA9EE99DE8C2E78CF0C2F7EB
:1000A60095F0400CE8CCF8E9CDF9EACEFAEBCFFBB7
:1000B60012040285D0F05804700320D5B3E804700A
:1000C600075002B2D502044192D5EC0460F7E4CCA5
:1000D600C0E0C398F8603B94186008400DD0E0FB80
:1000E600020419E4FBFAC9FC8028E830E406E4C9F6
:1000F600FBE4CAFCE830E305E4C9CACBFCE85407D4
:100106006010F8C3E913F9EA13FAEB13FBEC13FCDE
:10011600D8F130F52FC3E49CFCEF9BFFEE9AFEED81
:1001260099FDD0E0FBEF4E4D4C701222DB0302042A
:100136003EEC2CFCEF33FFEE33FEED33FDED30E706
:10014600EB020419EF2BFFEE3AFEED39FDD0E0FB92
:1001560050130BBB0003020441ED13FDEE13FEEF3B
:0801660013FFEC13FC02041965
:10016E00EC4D6011E8497017ED33EC3304600DE48B
:10017E00FCFFFEFD22E933E8330470F80204371267
:10018E00040258046009E4CC248150062850090268
:10019E00044128400302043EC0E0EB4A7044B9809B
:1001AE0006D0E0FB02042DEF4E701CBD8008EBFF65
:1001BE00EAFEE9FD80EBE98DF0A4FEE5F0020257C0
:1001CE00E9CDF9EAFEEBFFEF89F0A4FCE5F0CE896C
:1001DE00F0A42EFFE435F0CD89F0A42DFEE435F029
:1001EE008067EF4E7005BD80D780C3EF8BF0A4AC57
:1001FE00F0EE8BF0A42CFCE435F0F8EF8AF0A42C92
:10020E00E5F038FCE433CB8DF0A42CFCE5F03BF8A4
:10021E00EE8AF0A42CFCE5F038F8E433CF89F0A494
:10022E002CFCE5F038CF3400CE89F0A42FFFE5F09A
:10023E003EFEE433C98DF0A42EFEE5F039CD8AF0F2
:10024E00A42FFFE5F03EFEE43DFD33D0E0FB50076A
:10025E000BBB000F020441EC2CFCEF33FFEE33FE20
:06026E00ED33FD0204194E
:10027400020441EC5D046005E8590470030204378C
:10028400120402580460F6EC4860F2EC7004FDFEBF
:10029400FF22C860DB2481C85009C398600250065D
:1002A40002043E9850CAF582E9294B4A7005AB8294
:1002B40002042D75F0007C1A7880C3EF9BEE9AED52
:1002C40099400DC3EF9BFFEE9AFEED99FDE842F0D5
:1002D400DC23ACF0D0E0FFD0E0FED0E0FDAB822028
:1002E400E7101BEB60BAEC2CFCEF33FFEE33FEEDB2
:1002F40033FD020419E803F830E705C0F075F00097
:10030400EF2FFFEE33FEED33FD40B830E7C280AA95
:1003140074F8CC6480CCC86480C8F58204604FC390
:10032400EB9FF5F0EA9E42F0E99D42F0E89C45F02F
:10033400603C501DE5825FFFE582D313CB5BCBF4B9
:100344002B5582FB50280ABA002409B900200880E2
:100354001DE5825BFBE582D313CF5FCFF4C3132F7C
:100364005582FF50090EBE00050DBD00010CC3EB04
:100374009FF5F0EA9E42F0E99D42F0E89C45F0606A
:0903840007CC4820E701B3EC228C
:10038D0075F020800E75F010800575F0087D007EEB
:10039D00007F003392D530D5031206C6EC334010E2
:1003AD00EF33FFEE33FEED33FDEC33FCD5F0ED22F4
:0E03BD00E5F0247EA2D513CC92E7CDCEFF2230
:1003CB00EDD2E7CD33EC3392D524814006E4FFFE2A
:1003DB00FDFC22FCE4CFCECDCC24E0501174FF8089
:1003EB00EDC3CC13CCCD13CDCE13CECF13CF047026
:0703FB00F030D5DE0206C65A
:10040200E9D2E7C933E833F892D5EDD2E7CD33EC40
:0704120033FC5002B2D522B9
:10041900EC30E7100FBF000C0EBE00080DBD000444
:100429000BEB6014A2D5EB13FCED92E7FD2274FFF0
:10043900FCFDFEFF22E480F8A2D574FF13FC7D8049
:03044900E480EF5D
:0300000002120EDB
:0C120E00787FE4F6D8FD75815C02125573
:10044C00E709F608DFFA8046E709F208DFFA803E92
:10045C0088828C83E709F0A3DFFA8032E309F6087F
:10046C00DFFA8078E309F208DFFA807088828C83E7
:10047C00E309F0A3DFFA806489828A83E0A3F6089B
:10048C00DFFA805889828A83E0A3F208DFFA804C75
:10049C0080D280FA80C680D4806980F2803380104C
:1004AC0080A680EA809A80A880DA80E280CA8033B5
:1004BC0089828A83ECFAE493A3C8C582C8CCC5832D
:1004CC00CCF0A3C8C582C8CCC583CCDFE9DEE780FD
:1004DC000D89828A83E493A3F608DFF9ECFAA9F07C
:1004EC00EDFB2289828A83ECFAE0A3C8C582C8CCD2
:1004FC00C583CCF0A3C8C582C8CCC583CCDFEADEEB
:10050C00E880DB89828A83E493A3F208DFF980CC4C
:10051C0088F0EF60010E4E60C388F0ED2402B40445
:10052C000050B9F582EB2402B4040050AF232345EC
:06053C00822390049C7371
:10054200EF8DF0A4A8F0CF8CF0A428CE8DF0A42ECD
:02055200FE2287
:10055400BC000BBE0029EF8DF084FFADF022E4CC8B
:10056400F875F008EF2FFFEE33FEEC33FCEE9DEC54
:10057400984005FCEE9DFE0FD5F0E9E4CEFD22ED9A
:10058400F8F5F0EE8420D21CFEADF075F008EF2FE4
:10059400FFED33FD4007985006D5F0F222C398FDD5
:0505A4000FD5F0EA2272
:1005A900E88FF0A4CC8BF0A42CFCE98EF0A42CFCF1
:1005B9008AF0EDA42CFCEA8EF0A4CDA8F08BF0A46F
:1005C9002DCC3825F0FDE98FF0A42CCD35F0FCEBCE
:1005D9008EF0A4FEA9F0EB8FF0A4CFC5F02ECD3993
:0F05E900FEE43CFCEAA42DCE35F0FDE43CFC2200
:1005F80075F008758200EF2FFFEE33FECD33CDCCBA
:1006080033CCC58233C5829BED9AEC99E58298403C
:100618000CF582EE9BFEED9AFDEC99FC0FD5F0D619
:10062800E4CEFBE4CDFAE4CCF9A88222B800C1B943
:100638000059BA002DEC8BF084CFCECDFCE5F0CB81
:10064800F97818EF2FFFEE33FEED33FDEC33FCEBBA
:1006580033FB10D703994004EB99FB0FD8E5E4F975
:10066800FA227818EF2FFFEE33FEED33FDEC33FC62
:10067800C933C910D7059BE99A4007EC9BFCE99A56
:10068800F90FD8E0E4C9FAE4CCFB2275F010EF2F9B
:10069800FFEE33FEED33FDCC33CCC833C810D7079B
:1006A8009BEC9AE899400AED9BFDEC9AFCE899F8D6
:0E06B8000FD5F0DAE4CDFBE4CCFAE4C8F92269
:0E06C600C3E49FFFE49EFEE49DFDE49CFC2245
:1006D400EB9FF5F0EA9E42F0E99D42F0E89C45F07C
:0106E40022F3
:1006E500D083D082F8E4937012740193700DA3A3A4
:1006F50093F8740193F5828883E4737402936860B8
:06070500EFA3A3A380DFB7
:0C164300EE30E707C3E49FFFE49EFE22A8
:10121A00020E8BE493A3F8E493A34003F68001F251
:10122A0008DFF48029E493A3F85407240CC8C333D5
:10123A00C4540F4420C8834004F456800146F6DFA4
:10124A00E4800B01020408102040809013D6E47E4B
:10125A00019360BCA3FF543F30E509541FFEE49399
:10126A00A360010ECF54C025E060A840B8E493A360
:10127A00FAE493A3F8E493A3C8C582C8CAC583CA8B
:10128A00F0A3C8C582C8CAC583CADFE9DEE780BE43
:01141E0000CD
:00000001FF
